{
  "contractName": "DogMarket",
  "abi": [
    {
      "constant": true,
      "inputs": [
        {
          "name": "",
          "type": "uint256"
        }
      ],
      "name": "adopters",
      "outputs": [
        {
          "name": "",
          "type": "address"
        }
      ],
      "payable": false,
      "stateMutability": "view",
      "type": "function"
    },
    {
      "constant": false,
      "inputs": [
        {
          "name": "dogId",
          "type": "uint256"
        }
      ],
      "name": "adoptDog",
      "outputs": [
        {
          "name": "",
          "type": "uint256"
        }
      ],
      "payable": false,
      "stateMutability": "nonpayable",
      "type": "function"
    },
    {
      "constant": false,
      "inputs": [
        {
          "name": "dogId",
          "type": "uint256"
        }
      ],
      "name": "getAdoptUser",
      "outputs": [
        {
          "name": "",
          "type": "address"
        }
      ],
      "payable": false,
      "stateMutability": "nonpayable",
      "type": "function"
    },
    {
      "constant": false,
      "inputs": [],
      "name": "getAdopter",
      "outputs": [
        {
          "name": "",
          "type": "address[16]"
        }
      ],
      "payable": false,
      "stateMutability": "nonpayable",
      "type": "function"
    }
  ],
  "bytecode": "0x608060405234801561001057600080fd5b5061036c806100206000396000f300608060405260043610610061576000357c0100000000000000000000000000000000000000000000000000000000900463ffffffff1680620f56ea1461006657806343ae80d3146100d3578063654486c814610140578063c242452d14610193575b600080fd5b34801561007257600080fd5b50610091600480360381019080803590602001909291905050506101d4565b604051808273ffffffffffffffffffffffffffffffffffffffff1673ffffffffffffffffffffffffffffffffffffffff16815260200191505060405180910390f35b3480156100df57600080fd5b506100fe6004803603810190808035906020019092919050505061020d565b604051808273ffffffffffffffffffffffffffffffffffffffff1673ffffffffffffffffffffffffffffffffffffffff16815260200191505060405180910390f35b34801561014c57600080fd5b50610155610242565b6040518082601060200280838360005b83811015610180578082015181840152602081019050610165565b5050505090500191505060405180910390f35b34801561019f57600080fd5b506101be600480360381019080803590602001909291905050506102c3565b6040518082815260200191505060405180910390f35b600080826010811015156101e457fe5b0160009054906101000a900473ffffffffffffffffffffffffffffffffffffffff169050919050565b60008160108110151561021c57fe5b016000915054906101000a900473ffffffffffffffffffffffffffffffffffffffff1681565b61024a61031c565b60006010806020026040519081016040528092919082601080156102b9576020028201915b8160009054906101000a900473ffffffffffffffffffffffffffffffffffffffff1673ffffffffffffffffffffffffffffffffffffffff168152602001906001019080831161026f575b5050505050905090565b6000336000836010811015156102d557fe5b0160006101000a81548173ffffffffffffffffffffffffffffffffffffffff021916908373ffffffffffffffffffffffffffffffffffffffff160217905550819050919050565b610200604051908101604052806010906020820280388339808201915050905050905600a165627a7a7230582001183e94154812dd3ad59bf09b8f66271d79b8c9061c09e9eea14e026c32b9cf0029",
  "source": "pragma solidity ^0.4.17;\n\ncontract DogMarket {\n        \n        //保存领养信息\n        address[16]  public adopters;\n\n        \n        function adoptDog(uint dogId) public returns(uint) {\n                adopters[dogId] = msg.sender;\n                return dogId;\n        }\n\n        function getAdoptUser(uint dogId) public returns(address) {\n                return adopters[dogId];\n        }\n\n        function getAdopter() public returns(address[16]) {\n                return adopters;\n        }\n}",
  "sourcePath": "/media/jayden/E4B0C898B0C8729A/blockChain/truffle/pet-shop/contracts/DogMarket.sol",
  "compiler": {
    "name": "solc",
    "version": "0.4.23+commit.124ca40d.Emscripten.clang"
  },
  "schemaVersion": "2.0.0",
  "updatedAt": "2018-04-28T04:21:09.288Z"
}